:100000000C94FC050C9424060C9424060C942406F1
:100010000C9424060C9424060C9424060C942406B8
:100020000C9424060C9424060C9424060C942406A8
:100030000C9424060C9424060C9424060C94240698
:100040000C94AB0A0C9424060C94130C0C94240608
:100050000C9424060C9424060C9424060C94240678
:100060000C9424060C9424060C9462000C948A00D0
:100070000C948A000C948A000C948A000C948A00D8
:100080000C948A000C948A000C948A000C948A00C8
:100090000C948A000C948A000C948A000C948A00B8
:1000A0000C948A000C948A000C9418010C948A0019
:1000B0000C9431020C948A000C948A000C948A00EF
:1000C0000C948A000C948A000C948A000C948A0088
:1000D00000000000240027002A0000000000250086
:1000E00028002B0000000000230026002900040443
:1000F00004040404040402020202020203030303D0
:1001000003030102040810204080010204081020AB
:100110000102040810200000000700020100000393
:1001200004060000000000000000C20311241FBEEE
:10013000CFEFD8E0DEBFCDBF11E0A0E0B1E0E4E258
:10014000FBE002C005900D92A031B107D9F711E094
:10015000A0E1B1E001C01D92A23BB107E1F710E0C0
:10016000C4ECD0E004C02297FE010E948C05C23C82
:10017000D107C9F70E9411010C9490050C9400005E
:1001800080910201909103018F5F9F4FF9F460917C
:10019000040170910501882777FD8095982F0E94B2
:1001A00060018FE991E00E946703882349F08FE99D
:1001B00091E00E94A303109203011092020106C075
:1001C00081E090E09093030180930201809102010D
:1001D00090910301892B59F18FE991E04FEF50E0A5
:1001E00060E070E020E030E00E94F20480910001C5
:1001F00061E00E94E40164EF71E080E090E00E9421
:1002000060018091000160E00E94E4018FE991E0CB
:100210004EEF50E060E070E020E030E00E94F20439
:1002200064EF71E080E090E00E94600108958FE942
:1002300091E00E9467038823C9F08FE991E00E9452
:100240007B0390931101809310018F3F910531F44E
:100250008091000161E00E94E40108958E3F9105C4
:1002600029F48091000160E00E94E40108958091EA
:10027000000161E00E94C4018FE991E040E051EE8D
:1002800060E070E00E946E0208950E948A010E9460
:1002900003010E948C00FDCF1F920F920FB60F92A8
:1002A00011242F933F938F939F93AF93BF9380918C
:1002B000160190911701A0911801B0911901309188
:1002C0001A010196A11DB11D232F2D5F2D3720F09E
:1002D0002D570196A11DB11D20931A01809316017F
:1002E00090931701A0931801B09319018091120106
:1002F00090911301A0911401B09115010196A11DD7
:10030000B11D8093120190931301A0931401B09337
:100310001501BF91AF919F918F913F912F910F90B8
:100320000FBE0F901F901895EF92FF920F931F939F
:100330007B018C018FB7F894409116015091170101
:1003400060911801709119018FBF2FB7F8948091B7
:10035000160190911701A0911801B09119012FBFBA
:10036000841B950BA60BB70BE816F9060A071B07AB
:1003700060F71F910F91FF90EF900895789484B5E6
:10038000826084BD84B5816084BD85B5826085BD91
:1003900085B5816085BDEEE6F0E080818160808377
:1003A000E1E8F0E0808182608083808181608083E9
:1003B000E0E8F0E0808181608083E1EBF0E0808123
:1003C00084608083E0EBF0E0808181608083EAE7F5
:1003D000F0E080818460808380818260808380817E
:1003E000816080838081806880831092C10008953D
:1003F000282F30E0C90186569F4FFC0194912A575F
:100400003F4FF9018491882391F0E82FF0E0EE0F3F
:10041000FF1FE859FF4FA591B491662329F48C91F1
:10042000909589238C9308958C91892B8C930895B2
:10043000482F50E0CA0182559F4FFC012491CA0108
:1004400086569F4FFC0194914A575F4FFA013491B1
:100450003323D1F1222331F1233021F48091800024
:100460008F7705C0243031F4809180008F7D809398
:10047000800018C0213019F484B58F7704C0223071
:1004800021F484B58F7D84BD0DC0263021F4809188
:10049000B0008F7705C0273029F48091B0008F7DA0
:1004A0008093B000E32FF0E0EE0FFF1FEE58FF4FF8
:1004B000A591B491662329F48C91909589238C930E
:1004C00008958C91892B8C9308951F920F920FB6EB
:1004D0000F9211242F933F934F935F936F937F93CA
:1004E0008F939F93AF93BF93EF93FF934091C60079
:1004F000E0919B01F0919C01CF01019660E870E0D2
:100500000E9426059C0180919D0190919E012817D3
:10051000390739F0E55EFE4F408330939C0120930C
:100520009B01FF91EF91BF91AF919F918F917F912F
:100530006F915F914F913F912F910F900FBE0F9050
:100540001F9018955F926F927F928F929F92AF92B9
:10055000BF92CF92DF92EF92FF920F931F93CF93B0
:10056000DF93EC013A014B01413482E458078FE0FC
:10057000680780E078070CF07FC060E874E88EE1DF
:1005800090E0A40193010E945B052150304040405F
:100590005040CA01B90122E030E040E050E00E9442
:1005A0005B0559016A01A60195012095309540959A
:1005B000509594E0220F331F441F551F9A95D1F791
:1005C00060E074E284EF90E00E945B05CA01B9012B
:1005D0002FEF30E040E050E00E940705A4019301B6
:1005E0000E945B05C90181509F4F181619061CF423
:1005F000522E5A9403C055245394521A60E079E065
:100600008DE390E0A40193010E945B0521503040EE
:1006100040405040CA01B90122E030E040E050E0E3
:100620000E945B05209530954095509583E0220F00
:10063000331F441F551F8A95D1F760E074E284EFA1
:1006400090E00E945B05CA01B9012FEF30E040E065
:1006500050E00E940705A40193010E945B05C901B7
:1006600081509F4F181619061CF4822F815002C02A
:1006700081E0821B851500F5E885F98581E090E031
:100680000A8802C0880F991F0A94E2F7808360E00D
:1006900079E08DE390E0A40193010E945B05215075
:1006A000304040405040CA01B90122E030E040E013
:1006B00050E00E945B0504C0E885F9851082950131
:1006C000EC81FD813083EE81FF812083EA85FB850B
:1006D000208141E050E0CA010E8402C0880F991FBA
:1006E0000A94E2F7282B2083EA85FB852081CA0142
:1006F0000F8402C0880F991F0A94E2F7282B2083E9
:10070000EA85FB858081088802C0440F551F0A9442
:10071000E2F7842B8083DF91CF911F910F91FF909F
:10072000EF90DF90CF90BF90AF909F908F907F9091
:100730006F905F900895DC011296ED91FC911397F4
:10074000E058FF4F8191919180589F4F20813181D6
:10075000821B930B60E870E00E9426050895CF93FA
:10076000DF93DC011296ED91FC911397EF01CE57C8
:10077000DF4F48815981E058FF4F80819181E058D7
:10078000F0408417950719F42FEF3FEF0CC0E40FEA
:10079000F51F2081CA01019660E870E00E942605DD
:1007A0009983888330E0C901DF91CF910895DC01FE
:1007B0001296ED91FC911397EE57FF4F8081918136
:1007C000929382930895FC01A085B18521898C9133
:1007D00090E0022E02C0959587950A94E2F780FF7B
:1007E000F6CF0484F585E02D608308958AE091E0DA
:1007F0009093A00180939F018BE191E09093A201DF
:100800008093A10185EC90E09093A4018093A301D3
:1008100084EC90E09093A6018093A50180EC90E099
:100820009093A8018093A70181EC90E09093AA0196
:100830008093A90186EC90E09093AC018093AB018A
:1008400084E08093AD0183E08093AE0187E08093E4
:10085000AF0185E08093B00181E08093B1010895FC
:100860000F931F93CF93DF938C01EB0109C0219667
:10087000D801ED91FC910190F081E02DC80109951E
:1008800068816623A1F7DF91CF911F910F910895A1
:10089000EF92FF920F931F93CF93DF938C017B0115
:1008A000EA010CC0D7016D917D01D801ED91FC9159
:1008B0000190F081E02DC80109952197209791F7CB
:1008C000DF91CF911F910F91FF90EF9008952F929C
:1008D0003F924F925F926F927F928F929F92AF92D0
:1008E000BF92CF92DF92EF92FF920F931F93DF930D
:1008F000CF93CDB7DEB7A0970FB6F894DEBF0FBE8B
:10090000CDBF1C016A017B014115510561057105CF
:1009100049F4DC01ED91FC910190F081E02D60E360
:10092000099554C0882499245401422E55246624E4
:10093000772401E010E00C0F1D1F080D191DC701E1
:10094000B601A30192010E943905F8016083089461
:10095000811C911CA11CB11CC701B601A30192010D
:100960000E943905C901DA016C017D01C114D1046D
:10097000E104F104F1F681E0E82EF12CEC0EFD1E0D
:10098000E80CF91C3E010894611C711CD501C401DE
:100990000197A109B1096C01C818D90814C0F60162
:1009A000EE0DFF1D60816A3010F4605D01C0695C6E
:1009B000D101ED91FC910190F081E02DC1010995EB
:1009C0000894E108F1086E147F0449F7A0960FB669
:1009D000F894DEBF0FBECDBFCF91DF911F910F9175
:1009E000FF90EF90DF90CF90BF90AF909F908F904F
:1009F0007F906F905F904F903F902F900895EF926F
:100A0000FF920F931F93CF93DF93EC017A018B0139
:100A100077FF0FC0E881F9810190F081E02D6DE250
:100A2000099510950095F094E094E11CF11C011DCE
:100A3000111DCE01B801A7012AE00E943304DF9105
:100A4000CF911F910F91FF90EF900895DC01211538
:100A5000310541F4ED91FC910190F081E02D642F7E
:100A6000099508952A30310519F40E94CB040895A0
:100A70000E9433040895629FD001739FF001829F0A
:100A8000E00DF11D649FE00DF11D929FF00D839F1D
:100A9000F00D749FF00D659FF00D9927729FB00DBA
:100AA000E11DF91F639FB00DE11DF91FBD01CF01CD
:100AB0001124089597FB092E07260AD077FD04D04C
:100AC00049D006D000201AF4709561957F4F0895A3
:100AD000F6F7909581959F4F0895A1E21A2EAA1BD3
:100AE000BB1BFD010DC0AA1FBB1FEE1FFF1FA217DE
:100AF000B307E407F50720F0A21BB30BE40BF50BDB
:100B0000661F771F881F991F1A9469F76095709563
:100B1000809590959B01AC01BD01CF01089597FB95
:100B2000092E05260ED057FD04D0D7DF0AD0001CB1
:100B300038F450954095309521953F4F4F4F5F4F7A
:100B40000895F6F790958095709561957F4F8F4F3A
:100B50009F4F0895AA1BBB1B51E107C0AA1FBB1FD3
:100B6000A617B70710F0A61BB70B881F991F5A9539
:100B7000A9F780959095BC01CD010895EE0FFF1F58
:100B80000590F491E02D0994F894FFCF0D00FFFF3C
:100B9000D00700000000AF03FC03140400000000B5
:100BA000240027002A0000000000250028002B0058
:100BB00000000000230026002900040404040404AB
:100BC00004040202020202020303030303030102FC
:100BD00004081020408001020408102001020408CB
:100BE00010200000000700020100000304060000BE
:100BF000000000000000A40D11241FBECFEFD8E0BC
:100C0000DEBFCDBF11E0A0E0B1E0E8EEFEE102C042
:100C100005900D92A831B107D9F712E0A8E1B1E033
:100C200001C01D92A03FB107E1F71BE0C8EFDBE078
:100C300004C02297FE010E946E0FC63FD107C9F77C
:100C40000E94A40A0C94720F0C9400008091000181
:100C500061E00E94570B8091060160E00E94570BF3
:100C60008091060161E00E94770B8DED92E040E0FB
:100C700051EE60E070E00E94500C0895CF93DF9336
:100C800010924F0210924E02C0E1D0E023C08DEDD1
:100C900092E00E945D0D90934D0280934C028C3F38
:100CA000910521F4D0934D02C0934C0280914E02E5
:100CB00090914F02FC01EE0FFF1FE45DFD4F20916C
:100CC0004C0230914D0231832083019690934F0264
:100CD00080934E028DED92E00E94490D8823B9F673
:100CE000DF91CF91089580911A0190911B01892B7A
:100CF00099F48DED92E040E051EE60E070E00E94EA
:100D0000500C80910A0161E00E94570B81E090E055
:100D100090931B0180931A0180910A0160E00E9468
:100D2000770B64E670E080E090E00E94F30A809127
:100D30000A0161E00E94770B64E670E080E090E0D9
:100D40000E94F30A10921D0110921C0127C08DED24
:100D500092E040E350E060E070E020E030E00E948C
:100D6000D40E8DED92E040E250E060E070E020E0D3
:100D700030E00E94D40E60910C0170910D01882723
:100D800077FD8095982F0E94F30A80911C01909125
:100D90001D01019690931D0180931C0180911C01FF
:100DA00090911D0149979CF20E943E0680914E024F
:100DB00090914F0202970CF434C380912C029091D1
:100DC0002D02449709F02DC380912E0290912F029D
:100DD000409709F026C38DED92E00E94850D8DEDC0
:100DE00092E042E450E060E070E020E030E00E94F9
:100DF000D40E8DED92E046E850E060E070E020E037
:100E000030E00E94D40E8DED92E040E050E060E0D2
:100E100070E020E030E00E94D40E8DED92E040E0E2
:100E200050E060E070E020E030E00E94D40E8DEDF4
:100E300092E041E050E060E070E020E030E00E94AD
:100E4000D40E8DED92E041E050E060E070E020E0F3
:100E500030E00E94D40E8DED92E041E050E060E081
:100E600070E020E030E00E94D40E8DED92E041E091
:100E700050E060E070E020E030E00E94D40E8DEDA4
:100E800092E043E050E060E070E020E030E00E945B
:100E9000D40E8DED92E04FEF50E060E070E020E086
:100EA00030E00E94D40E8DED92E04FEF50E060E014
:100EB00070E020E030E00E94D40E8DED92E04FEF24
:100EC00050E060E070E020E030E00E94D40E8DED54
:100ED00092E04FEF50E060E070E020E030E00E94F0
:100EE000D40E8DED92E040E050E060E070E020E054
:100EF00030E00E94D40E8DED92E040E850E060E0DA
:100F000070E020E030E00E94D40E8DED92E044E0ED
:100F100050E060E070E020E030E00E94D40E8DED03
:100F200092E040E050E060E070E020E030E00E94BD
:100F3000D40E8DED92E040E050E060E070E020E003
:100F400030E00E94D40E8DED92E040E050E060E091
:100F500070E020E030E00E94D40E8DED92E040E899
:100F600050E060E070E020E030E00E94D40E8DEDB3
:100F700092E040E050E060E070E020E030E00E946D
:100F8000D40E8DED92E040E250E060E070E020E0B1
:100F900030E00E94D40E60910C0170910D01882701
:100FA00077FD8095982F0E94F30A0E943E0680915B
:100FB0004E0290914F02029709F033C280912C02A9
:100FC00090912D02449709F02CC280912E029091AD
:100FD0002F02409709F025C28DED92E045E450E0E4
:100FE00060E070E020E030E00E94D40E8DED92E0F1
:100FF00045E050E060E070E020E030E00E94D40E78
:101000008DED92E044E050E060E070E020E030E000
:101010000E94D40E8DED92E047ED50E060E070E06C
:1010200020E030E00E94D40E8DED92E042EC50E0E2
:1010300060E070E020E030E00E94D40E8DED92E0A0
:1010400040E050E060E070E020E030E00E94D40E2C
:101050008DED92E040E250E060E070E020E030E0B2
:101060000E94D40E60910C0170910D01882777FDCC
:101070008095982F0E94F30A0E943E0680914E02AE
:1010800090914F02029709F0CCC180912C0290916F
:101090002D02449709F0C5C180912E0290912F0234
:1010A000409709F0BEC18DED92E040E550E060E070
:1010B00070E020E030E00E94D40E8DED92E040E23E
:1010C00050E060E070E020E030E00E94D40E6091DB
:1010D0000C0170910D01882777FD8095982F0E9453
:1010E000F30A0E943E0680914E0290914F020297B1
:1010F00009F097C180912C0290912D02449709F03C
:1011000090C180912E0290912F02409709F089C1E1
:10111000109225011092240110921D0110921C01C1
:101120003DC15093210140932001CA0181589F4F36
:1011300090932301809322018217930734F021506A
:10114000304030932301209322018091220190911D
:10115000230101962091200130912101821B930BE4
:1011600090932B0280932A0210921F0110921E016D
:1011700013C0F901E40FF51FE859FF4F8491F901FD
:10118000EE0FFF1FE65DFE4F808311822F5F3F4F02
:1011900030931F0120931E0120911E0130911F01E9
:1011A00080912A0290912B022817390714F320917D
:1011B000240130912501C90160E071E00E94080F0F
:1011C0007093290160932801C90160E071E00E94D9
:1011D000080F9093270180932601205C3F4F3093A6
:1011E0002501209324018DED92E045E550E060E07B
:1011F00070E020E030E00E94D40E40912601509132
:101200002701662757FD6095762F8DED92E020E04F
:1012100030E00E94D40E40912801509129016627A8
:1012200057FD6095762F8DED92E020E030E00E9432
:10123000D40E8DED92E040E250E060E070E020E0FE
:1012400030E00E94D40E60910C0170910D0188274E
:1012500077FD8095982F0E94F30A0E943E068091A8
:101260004E0290914F02029709F0DBC080912C0250
:1012700090912D02449709F0D4C080912E02909154
:101280002F02409709F0CDC08DED92E044E650E08A
:1012900060E070E020E030E00E94D40E8DED92E03E
:1012A00040E050E060E070E020E030E00E94D40ECA
:1012B00040912A0250912B02662757FD6095762FA8
:1012C0008DED92E020E030E00E94D40E8DED92E0B2
:1012D00046E450E060E070E020E030E00E94D40E90
:1012E00010921F0110921E0119C0EE0FFF1FE65D44
:1012F000FE4F40815181662757FD6095762F8DED19
:1013000092E020E030E00E94D40E80911E01909186
:101310001F01019690931F0180931E01E0911E0111
:10132000F0911F0180912A0290912B02E817F90792
:10133000E4F28DED92E040E250E060E070E020E009
:1013400030E00E94D40E60910C0170910D0188274D
:1013500077FD8095982F0E94F30A0E943E068091A7
:101360004E0290914F02029709F05BC080912C02CF
:1013700090912D02449709F054C080912E029091D3
:101380002F02409709F04DC080911C0190911D01E2
:1013900080589F4F90931D0180931C0140911C0128
:1013A00050911D0120910801309109014217530706
:1013B0000CF4B7CE8DED92E041E550E060E070E0D6
:1013C00020E030E00E94D40E8DED92E040E250E04B
:1013D00060E070E020E030E00E94D40E60910C01EB
:1013E00070910D01882777FD8095982F0E94F30A50
:1013F0000E943E0680914E0290914F02029789F41E
:1014000080912C0290912D02449759F420E030E015
:1014100080912E0290912F02409729F421E030E034
:1014200002C020E030E0C9010895809106010E94C9
:10143000C40B892B91F48091000161E00E94770B2D
:10144000809106010E94C40B892BD1F38091000189
:1014500060E00E94770B0E947306809102019091D8
:1014600003018F5F9F4FF9F46091040170910501B2
:10147000882777FD8095982F0E94F30A8DED92E0E2
:101480000E94490D882349F08DED92E00E94850D60
:10149000109203011092020106C081E090E0909347
:1014A0000301809302018091020190910301892B35
:1014B00059F18DED92E04FEF50E060E070E020E0F8
:1014C00030E00E94D40E8091000161E00E94770B11
:1014D00064EF71E080E090E00E94F30A80910001E7
:1014E00060E00E94770B8DED92E04EEF50E060E0FF
:1014F00070E020E030E00E94D40E64EF71E080E004
:1015000090E00E94F30A08958DED92E00E94490D4B
:101510008823C9F08DED92E00E945D0D9093190132
:10152000809318018F3F910531F48091000161E0B3
:101530000E94770B08958E3F910529F48091000158
:1015400060E00E94770B08950E941D0B0E94260602
:101550000E94150AFDCF1F920F920FB60F92112411
:101560002F933F938F939F93AF93BF938091540298
:1015700090915502A0915602B091570230915802B5
:101580000196A11DB11D232F2D5F2D3720F02D5762
:101590000196A11DB11D209358028093540290938F
:1015A0005502A0935602B093570280915002909139
:1015B0005102A0915202B09153020196A11DB11D9A
:1015C0008093500290935102A0935202B093530221
:1015D000BF91AF919F918F913F912F910F900FBE2F
:1015E0000F901F901895EF92FF920F931F937B011E
:1015F0008C018FB7F894409154025091550260913C
:101600005602709157028FBF2FB7F8948091540201
:1016100090915502A0915602B09157022FBF841BA2
:10162000950BA60BB70BE816F9060A071B0760F720
:101630001F910F91FF90EF900895789484B5826088
:1016400084BD84B5816084BD85B5826085BD85B566
:10165000816085BDEEE6F0E0808181608083E1E815
:10166000F0E0808182608083808181608083E0E817
:10167000F0E0808181608083E1EBF0E08081846034
:101680008083E0EBF0E0808181608083EAE7F0E036
:10169000808184608083808182608083808181609A
:1016A00080838081806880831092C1000895282FF4
:1016B00030E0C9018253944FFC0194912654344F79
:1016C000F9018491882391F0E82FF0E0EE0FFF1FDD
:1016D000E456F44FA591B491662329F48C9190952A
:1016E00089238C9308958C91892B8C930895482F8E
:1016F00050E0CA018E51944FFC012491CA018253DB
:10170000944FFC0194914654544FFA013491332381
:10171000D1F1222331F1233021F4809180008F77A1
:1017200005C0243031F4809180008F7D809380004B
:1017300018C0213019F484B58F7704C0223021F409
:1017400084B58F7D84BD0DC0263021F48091B0001A
:101750008F7705C0273029F48091B0008F7D80936A
:10176000B000E32FF0E0EE0FFF1FEA55F44FA59114
:10177000B491662329F48C91909589238C930895D4
:101780008C91892B8C930895682F70E0CB018E513A
:10179000944FFC012491CB018253944FFC0144915E
:1017A0006654744FFB019491992319F420E030E0C2
:1017B00038C0222331F1233021F4809180008F77CB
:1017C00005C0243031F4809180008F7D80938000AB
:1017D00018C0213019F484B58F7704C0223021F469
:1017E00084B58F7D84BD0DC0263021F48091B0007A
:1017F0008F7705C0273029F48091B0008F7D8093CA
:10180000B000892F90E0880F991F8055944FFC01FC
:10181000A591B4918C9120E030E0842311F021E077
:1018200030E0C90108951F920F920FB60F92112454
:101830002F933F934F935F936F937F938F939F93D8
:10184000AF93BF93EF93FF934091C600E091D9020D
:10185000F091DA02CF01019660E870E00E94080F73
:101860009C018091DB029091DC022817390739F046
:10187000E75AFD4F40833093DA022093D902FF915B
:10188000EF91BF91AF919F918F917F916F915F91F8
:101890004F913F912F910F900FBE0F901F90189571
:1018A0005F926F927F928F929F92AF92BF92CF92F0
:1018B000DF92EF92FF920F931F93CF93DF93EC0190
:1018C0003A014B01413482E458078FE0680780E019
:1018D00078070CF07FC060E874E88EE190E0A40126
:1018E00093010E943D0F2150304040405040CA01BA
:1018F000B90122E030E040E050E00E943D0F590184
:101900006A01A6019501209530954095509594E087
:10191000220F331F441F551F9A95D1F760E074E2E0
:1019200084EF90E00E943D0FCA01B9012FEF30E033
:1019300040E050E00E94E90EA40193010E943D0F97
:10194000C90181509F4F181619061CF4522E5A9443
:1019500003C055245394521A60E079E08DE390E07F
:10196000A40193010E943D0F21503040404050405F
:10197000CA01B90122E030E040E050E00E943D0F92
:10198000209530954095509583E0220F331F441FDA
:10199000551F8A95D1F760E074E284EF90E00E94D1
:1019A0003D0FCA01B9012FEF30E040E050E00E9446
:1019B000E90EA40193010E943D0FC90181509F4F80
:1019C000181619061CF4822F815002C081E0821B78
:1019D000851500F5E885F98581E090E00A8802C068
:1019E000880F991F0A94E2F7808360E079E08DE325
:1019F00090E0A40193010E943D0F215030404040EF
:101A00005040CA01B90122E030E040E050E00E94BD
:101A10003D0F04C0E885F98510829501EC81FD81B8
:101A20003083EE81FF812083EA85FB85208141E0C0
:101A300050E0CA010E8402C0880F991F0A94E2F791
:101A4000282B2083EA85FB852081CA010F8402C0F0
:101A5000880F991F0A94E2F7282B2083EA85FB85DB
:101A60008081088802C0440F551F0A94E2F7842B36
:101A70008083DF91CF911F910F91FF90EF90DF90C6
:101A8000CF90BF90AF909F908F907F906F905F901E
:101A90000895DC011296ED91FC911397E058FF4FE9
:101AA0008191919180589F4F20813181821B930BAE
:101AB00060E870E00E94080F0895CF93DF93DC0187
:101AC0001296ED91FC911397EF01CE57DF4F4881AD
:101AD0005981E058FF4F80819181E058F040841790
:101AE000950719F42FEF3FEF0CC0E40FF51F20818D
:101AF000CA01019660E870E00E94080F998388830C
:101B000030E0C901DF91CF910895DC011296ED918B
:101B1000FC911397EE57FF4F8081918192938293AE
:101B20000895FC01A085B18521898C9190E0022E59
:101B300002C0959587950A94E2F780FFF6CF04845A
:101B4000F585E02D6083089582E191E09093DE02B7
:101B50008093DD0289E592E09093E0028093DF02BA
:101B600085EC90E09093E2028093E10284EC90E0B7
:101B70009093E4028093E30280EC90E09093E6027D
:101B80008093E50281EC90E09093E8028093E70275
:101B900086EC90E09093EA028093E90284E08093DF
:101BA000EB0283E08093EC0287E08093ED0285E016
:101BB0008093EE0281E08093EF0208950F931F93CC
:101BC000CF93DF938C01EB0109C02196D801ED91F1
:101BD000FC910190F081E02DC80109956881662390
:101BE000A1F7DF91CF911F910F910895EF92FF928E
:101BF0000F931F93CF93DF938C017B01EA010CC0FD
:101C0000D7016D917D01D801ED91FC910190F0819A
:101C1000E02DC80109952197209791F7DF91CF9189
:101C20001F910F91FF90EF9008952F923F924F9246
:101C30005F926F927F928F929F92AF92BF92CF925C
:101C4000DF92EF92FF920F931F93DF93CF93CDB765
:101C5000DEB7A0970FB6F894DEBF0FBECDBF1C0154
:101C60006A017B01411551056105710549F4DC01EB
:101C7000ED91FC910190F081E02D60E3099554C055
:101C8000882499245401422E55246624772401E0A7
:101C900010E00C0F1D1F080D191DC701B601A3018F
:101CA00092010E941B0FF80160830894811C911C13
:101CB000A11CB11CC701B601A30192010E941B0F18
:101CC000C901DA016C017D01C114D104E104F10400
:101CD000F1F681E0E82EF12CEC0EFD1EE80CF91C6B
:101CE0003E010894611C711CD501C4010197A10932
:101CF000B1096C01C818D90814C0F601EE0DFF1D1A
:101D000060816A3010F4605D01C0695CD101ED91C1
:101D1000FC910190F081E02DC10109950894E10842
:101D2000F1086E147F0449F7A0960FB6F894DEBF51
:101D30000FBECDBFCF91DF911F910F91FF90EF901C
:101D4000DF90CF90BF90AF909F908F907F906F90DB
:101D50005F904F903F902F900895EF92FF920F93D6
:101D60001F93CF93DF93EC017A018B0177FF0FC0B4
:101D7000E881F9810190F081E02D6DE209951095DF
:101D80000095F094E094E11CF11C011D111DCE01A1
:101D9000B801A7012AE00E94150EDF91CF911F9193
:101DA0000F91FF90EF900895DC012115310541F46A
:101DB000ED91FC910190F081E02D642F099508953B
:101DC0002A30310519F40E94AD0E08950E94150EB7
:101DD0000895629FD001739FF001829FE00DF11D75
:101DE000649FE00DF11D929FF00D839FF00D749F95
:101DF000F00D659FF00D9927729FB00DE11DF91F41
:101E0000639FB00DE11DF91FBD01CF01112408959D
:101E100097FB092E07260AD077FD04D049D006D0BB
:101E200000201AF4709561957F4F0895F6F790950C
:101E300081959F4F0895A1E21A2EAA1BBB1BFD019D
:101E40000DC0AA1FBB1FEE1FFF1FA217B307E40799
:101E5000F50720F0A21BB30BE40BF50B661F771FF1
:101E6000881F991F1A9469F76095709580959095D1
:101E70009B01AC01BD01CF01089597FB092E0526FA
:101E80000ED057FD04D0D7DF0AD0001C38F450958F
:101E90004095309521953F4F4F4F5F4F0895F6F78E
:101EA00090958095709561957F4F8F4F9F4F0895C6
:101EB000AA1BBB1B51E107C0AA1FBB1FA617B70770
:101EC00010F0A61BB70B881F991F5A95A9F780958C
:101ED0009095BC01CD010895EE0FFF1F0590F49180
:081EE000E02D0994F894FFCFF6
:101EE8000D00FFFFD0070200340B0700320000008E
:081EF8000000910DDE0DF60D56
:040000050080012056
:00000001FF
